:100000000C942A000C9434000C9434000C943400AA
:100010000C9434000C9434000C9434000C94340090
:100020000C9434000C9434000C9434000C94340080
:100030000C9434000C9434000C9434000C94340070
:100040000C9434000C9434000C9434000C94340060
:100050000C94340011241FBECFE5D8E0DEBFCDBF25
:100060000E947F010C9498010C9400004130F9F03B
:10007000E8F4823009F446C068F4811509F44CC0F4
:1000800027B381E001C0880F6A95EAF78095822343
:1000900087BB0895833009F04AC021B381E001C0D5
:1000A000880F6A95EAF78095822381BB0895823094
:1000B000B9F058F48115E9F087B321E001C0220FAF
:1000C0006A95EAF7822B87BB0895833079F581B36F
:1000D00021E001C0220F6A95EAF7822B81BB0895C7
:1000E00084B321E001C0220F6A95EAF7822B84BB1A
:1000F00008958AB321E001C0220F6A95EAF7822BA6
:100100008ABB089524B381E001C0880F6A95EAF79D
:100110008095822384BB08952AB381E001C0880FB3
:100120006A95EAF7809582238ABB08950895089519
:100130004130F9F0E8F4823009F446C068F48115E2
:1001400009F44CC028B381E001C0880F6A95EAF732
:100150008095822388BB0895833009F04AC022B37A
:1001600081E001C0880F6A95EAF78095822382BBFF
:1001700008958230B9F058F48115E9F088B321E090
:1001800001C0220F6A95EAF7822B88BB089583305D
:1001900079F582B321E001C0220F6A95EAF7822B3C
:1001A00082BB089585B321E001C0220F6A95EAF76A
:1001B000822B85BB08958BB321E001C0220F6A9585
:1001C000EAF7822B8BBB089525B381E001C0880F2D
:1001D0006A95EAF78095822385BB08952BB381E069
:1001E00001C0880F6A95EAF7809582238BBB08953A
:1001F0000895089541155105A1F0843090F46830B8
:1002000080F4823099F0833079F0813059F486B3EC
:1002100090E002C0959587956A95E2F78170FA01A2
:100220008083089589B3F4CF80B3F2CF83B3F0CF46
:100230008230B9F058F48115E9F088B321E001C0AB
:10024000220F6A95EAF7822788BB08958330D9F494
:1002500082B321E001C0220F6A95EAF7822782BBB0
:10026000089585B321E001C0220F6A95EAF782273D
:1002700085BB08958BB321E001C0220F6A95EAF790
:1002800082278BBB08950895823049F020F48115B0
:1002900041F067BB0895833031F461BB089564BBBE
:1002A00008956ABB08950895823049F020F48115BD
:1002B00041F068BB0895833031F462BB089565BB9B
:1002C00008956BBB089508956115710571F0823032
:1002D00091F030F4811559F086B3FB0180830895C5
:1002E000833021F480B3FB0180830895089589B39E
:1002F000FB018083089583B3FB018083089541E06F
:1003000060E080E00E94360041E060E080E00E9412
:1003100098002FEF89E698E1215080409040E1F766
:1003200000C0000040E060E080E00E949800ECCF58
:04033000F894FFCF6F
:00000001FF
