:100000000C942A000C943C000C943C000C943C0092
:100010000C943C000C943C000C943C000C943C0070
:100020000C943C000C943C000C9432020C94590249
:100030000C943C000C943C000C943C000C943C0050
:100040000C943C000C943C000C943C000C943C0040
:100050000C943C0011241FBECFE5D8E0DEBFCDBF1D
:1000600020E0A0E6B0E001C01D92A536B207E1F79E
:100070000E9480020C9400030C9400004130F9F0BF
:10008000E8F4823009F446C068F4811509F44CC0E4
:1000900027B381E001C0880F6A95EAF78095822333
:1000A00087BB0895833009F04AC021B381E001C0C5
:1000B000880F6A95EAF78095822381BB0895823084
:1000C000B9F058F48115E9F087B321E001C0220F9F
:1000D0006A95EAF7822B87BB0895833079F581B35F
:1000E00021E001C0220F6A95EAF7822B81BB0895B7
:1000F00084B321E001C0220F6A95EAF7822B84BB0A
:1001000008958AB321E001C0220F6A95EAF7822B95
:100110008ABB089524B381E001C0880F6A95EAF78D
:100120008095822384BB08952AB381E001C0880FA3
:100130006A95EAF7809582238ABB08950895089509
:100140004130F9F0E8F4823009F446C068F48115D2
:1001500009F44CC028B381E001C0880F6A95EAF722
:100160008095822388BB0895833009F04AC022B36A
:1001700081E001C0880F6A95EAF78095822382BBEF
:1001800008958230B9F058F48115E9F088B321E080
:1001900001C0220F6A95EAF7822B88BB089583304D
:1001A00079F582B321E001C0220F6A95EAF7822B2C
:1001B00082BB089585B321E001C0220F6A95EAF75A
:1001C000822B85BB08958BB321E001C0220F6A9575
:1001D000EAF7822B8BBB089525B381E001C0880F1D
:1001E0006A95EAF78095822385BB08952BB381E059
:1001F00001C0880F6A95EAF7809582238BBB08952A
:100200000895089541155105A1F0843090F46830A7
:1002100080F4823099F0833079F0813059F486B3DC
:1002200090E002C0959587956A95E2F78170FA0192
:100230008083089589B3F4CF80B3F2CF83B3F0CF36
:100240008230B9F058F48115E9F088B321E001C09B
:10025000220F6A95EAF7822788BB08958330D9F484
:1002600082B321E001C0220F6A95EAF7822782BBA0
:10027000089585B321E001C0220F6A95EAF782272D
:1002800085BB08958BB321E001C0220F6A95EAF780
:1002900082278BBB08950895823049F020F48115A0
:1002A00041F067BB0895833031F461BB089564BBAE
:1002B00008956ABB08950895823049F020F48115AD
:1002C00041F068BB0895833031F462BB089565BB8B
:1002D00008956BBB089508956115710571F0823022
:1002E00091F030F4811559F086B3FB0180830895B5
:1002F000833021F480B3FB0180830895089589B38E
:10030000FB018083089583B3FB0180830895CF931D
:10031000DF9300D000D00F92CDB7DEB749835A8368
:100320006B837C838D83413098F483B78F7B83BF4D
:1003300083B7877F83BF8A8182BF89B7816089BF86
:100340000F900F900F900F900F90DF91CF91089525
:10035000C1F08C81423041F1433091F793B7906402
:1003600093BF93B7977F93BF843031F1853071F19C
:100370001CBE0F900F900F900F900F90DF91CF91B8
:10038000089583B78F7B83BF83B7886083BF8B81DA
:100390008CBF89B7826089BF0F900F900F900F902C
:1003A0000F90DF91CF91089593B7906493BF93B767
:1003B000986093BF8430D1F693B79F7E93BF93B775
:1003C000906293BF809364001CBED3CF93B79061BB
:1003D000F5CF811521F093B7987F892B83BF0895BE
:1003E00083B7887F83BF089582BF08958CBF089527
:1003F000813040F46115710531F0609362007093B3
:100400006300089509F0089561157105E1F36093A3
:100410006000709361000895853640F49091640007
:10042000943029F020E0953079F02CBF0895282FE2
:1004300030E0AFEFB0E00E94CF0224E640E050E0B1
:100440000E94DE022CBF0895282F30E0AFEFB0E00D
:100450000E94CF0224E640E050E00E94DE02209598
:100460002CBF08951F920F920FB60F9211242F9355
:100470003F934F935F936F937F938F939F93AF932C
:10048000BF93EF93FF93E0916000F09161000995B5
:10049000FF91EF91BF91AF919F918F917F916F915C
:1004A0005F914F913F912F910F900FBE0F901F9032
:1004B00018951F920F920FB60F9211242F933F930E
:1004C0004F935F936F937F938F939F93AF93BF935C
:1004D000EF93FF93E0916200F09163000995FF9123
:1004E000EF91BF91AF919F918F917F916F915F91AC
:1004F0004F913F912F910F900FBE0F901F90189525
:10050000CF93DF9300D000D00F92CDB7DEB71A8221
:100510001B821C821D8282E0898384E08C8342E0FE
:1005200050E060E074E080E00E94870141E063E019
:1005300081E00E943E0082E00E94E90184E10E9485
:100540000C022FEF8DE399E4215080409040E1F7B9
:1005500000C0000088E20E940C022FEF8DE399E4B6
:10056000215080409040E1F700C000008CE30E94E1
:100570000C022FEF8DE399E4215080409040E1F789
:1005800000C0000080E50E940C022FEF8DE399E48B
:10059000215080409040E1F700C00000CFCFA29FE3
:1005A000B001B39FC001A39F700D811D1124911D47
:1005B000B29F700D811D1124911D0895A1E21A2E84
:1005C000AA1BBB1BFD010DC0AA1FBB1FEE1FFF1FF7
:1005D000A217B307E407F50720F0A21BB30BE40B47
:1005E000F50B661F771F881F991F1A9469F760958E
:1005F0007095809590959B01AC01BD01CF01089548
:04060000F894FFCF9C
:00000001FF
