:100000000C942A000C943E000C943C000C943C0090
:100010000C943C000C943C000C943C000C943C0070
:100020000C943C000C943C000C943C000C943C0060
:100030000C943C000C943C000C94D5000C943C00B7
:100040000C943C000C943C000C943C000C943C0040
:100050000C943C0011241FBECFE5D4E0DEBFCDBF21
:1000600020E0A0E6B0E001C01D92A336B207E1F7A0
:100070000E94CD020C94F3020C9400001F920F9288
:100080000FB60F9211242F933F934F935F936F936B
:100090007F938F939F93AF93BF93EF93FF93809141
:1000A0006000813090F0C9F0FF91EF91BF91AF9166
:1000B0009F918F917F916F915F914F913F912F9180
:1000C0000F900FBE0F901F90189541E061E00E94C5
:1000D000620181E080936000E7CF40E061E080E072
:1000E0000E94620110926000DFCFCF93DF9300D0B7
:1000F00000D000D0CDB7DEB7242F4983452F5A83D7
:100100006B83572F7C838D839E832130D0F43F985F
:100110003E984130E9F078F16130E9F010F151306A
:10012000E8F4339896B1987F8E81892B86B9379AF7
:100130000F900F900F900F900F900F90DF91CF9135
:100140000895D9F0223029F73F9A3E9A413019F7A5
:100150003D9A613019F73598513018F319F7339AF1
:10016000E1CF359A90B78D818295880F807E9F71FF
:10017000892B80BFD4CF3D98CFCF3F983E9AC9CF2F
:1001800097B1907E892B87B9369A86B1349A84B11B
:1001900095B1089597B1907E892B87B9369A0895C5
:1001A000809361009093620008951F920F920FB6A2
:1001B0000F9211242F933F934F935F936F937F93ED
:1001C0008F939F93AF93BF93EF93FF93E091610061
:1001D000F0916200309719F084B195B10995FF91C3
:1001E000EF91BF91AF919F918F917F916F915F91AF
:1001F0004F913F912F910F900FBE0F901F90189528
:100200004130F9F0E8F4823009F446C068F4811511
:1002100009F44CC027B381E001C0880F6A95EAF762
:100220008095822387BB0895833009F04AC021B3AB
:1002300081E001C0880F6A95EAF78095822381BB2F
:1002400008958230B9F058F48115E9F087B321E0C0
:1002500001C0220F6A95EAF7822B87BB089583308D
:1002600079F581B321E001C0220F6A95EAF7822B6C
:1002700081BB089584B321E001C0220F6A95EAF79B
:10028000822B84BB08958AB321E001C0220F6A95B6
:10029000EAF7822B8ABB089524B381E001C0880F5E
:1002A0006A95EAF78095822384BB08952AB381E09A
:1002B00001C0880F6A95EAF7809582238ABB08956A
:1002C000089508954130F9F0E8F4823009F446C009
:1002D00068F4811509F44CC028B381E001C0880F8F
:1002E0006A95EAF78095822388BB0895833009F0E8
:1002F0004AC022B381E001C0880F6A95EAF7809571
:10030000822382BB08958230B9F058F48115E9F058
:1003100088B321E001C0220F6A95EAF7822B88BBDF
:100320000895833079F582B321E001C0220F6A95E8
:10033000EAF7822B82BB089585B321E001C0220F2A
:100340006A95EAF7822B85BB08958BB321E001C043
:10035000220F6A95EAF7822B8BBB089525B381E0C3
:1003600001C0880F6A95EAF78095822385BB0895BE
:100370002BB381E001C0880F6A95EAF7809582234C
:100380008BBB08950895089541155105A1F084305F
:1003900090F4683080F4823099F0833079F08130C5
:1003A00059F486B390E002C0959587956A95E2F777
:1003B0008170FA018083089589B3F4CF80B3F2CFBE
:1003C00083B3F0CF8230B9F058F48115E9F088B3E7
:1003D00021E001C0220F6A95EAF7822788BB0895C1
:1003E0008330D9F482B321E001C0220F6A95EAF785
:1003F000822782BB089585B321E001C0220F6A9550
:10040000EAF7822785BB08958BB321E001C0220F54
:100410006A95EAF782278BBB08950895823049F0E8
:1004200020F4811541F067BB0895833031F461BB3E
:10043000089564BB08956ABB08950895823049F019
:1004400020F4811541F068BB0895833031F462BB1C
:10045000089565BB08956BBB0895089561157105F6
:1004600071F0823091F030F4811559F086B3FB01C0
:1004700080830895833021F480B3FB018083089545
:10048000089589B3FB018083089583B3FB018083C2
:100490000895813048F4613058F485B78D7F85BF69
:1004A00085B78E7F85BF089579F08230B1F00895C9
:1004B000E1F0623069F16330D1F785B7826085BFC2
:1004C00085B7816085BF08956130B0F485B78B7FB3
:1004D00085BF85B7877F85BF0895623039F1633066
:1004E00031F784B7806484BF089585B78D7F85BF59
:1004F00085B7816085BF0895E9F0623081F063308F
:10050000B1F685B7846085BF85B7886085BF0895DB
:1005100085B7826085BF85B78E7F85BF089585B713
:100520008B7F85BF85B7886085BF089584B78F7B33
:1005300084BF089585B7846085BF85B7877F85BFF1
:100540000895813020F48BB780648BBF089519F033
:10055000823029F008958BB780688BBF08958BB7E0
:1005600080628BBF0895813020F48BB78F7B8BBF67
:10057000089519F0823029F008958BB78F778BBFDB
:1005800008958BB78F7D8BBF08958FB780688FBF1D
:1005900008958FB78F778FBF089541E060E080E0C6
:1005A0000E94000141E061E080E00E94000140E023
:1005B00062E083E00E94000161E080E00E94490265
:1005C00080E00E94A1020E94C50260E080E00E94DB
:1005D000E2012FEF89E698E1215080409040E1F759
:0A05E00000C00000F2CFF894FFCF36
:00000001FF
