:100000000C942A000C9447000C9447000C94470071
:100010000C9447000C9447000C9447000C94470044
:100020000C9447000C9447000C9447000C94470034
:100030000C9447000C943F030C9474030C949D03A0
:100040000C9447000C9447000C9447000C94470014
:100050000C94470011241FBECFE5D8E0DEBFCDBF12
:1000600010E0A0E6B0E0E8E4F8E002C005900D92F0
:10007000A239B107D9F720E0A2E9B0E001C01D9292
:10008000A33AB207E1F70E94C6030C941B040C9438
:100090000000EF92FF920F931F93CF93DF93CDB7A2
:1000A000DEB72B970FB6F894DEBF0FBECDBF8BE047
:1000B000E0E6F0E0DE01119601900D928A95E1F7FD
:1000C000E980FA800B811C812D813E814F8158850A
:1000D00069857A858B850E94D1012B960FB6F8949D
:1000E000DEBF0FBECDBFDF91CF911F910F91FF906B
:1000F000EF90089590E00C9493020E94A20208955C
:100100000C94B3020C94C8020E942A030C941E03A0
:100110004130F9F0E8F4823009F446C068F4811502
:1001200009F44CC027B381E001C0880F6A95EAF753
:100130008095822387BB0895833009F04AC021B39C
:1001400081E001C0880F6A95EAF78095822381BB20
:1001500008958230B9F058F48115E9F087B321E0B1
:1001600001C0220F6A95EAF7822B87BB089583307E
:1001700079F581B321E001C0220F6A95EAF7822B5D
:1001800081BB089584B321E001C0220F6A95EAF78C
:10019000822B84BB08958AB321E001C0220F6A95A7
:1001A000EAF7822B8ABB089524B381E001C0880F4F
:1001B0006A95EAF78095822384BB08952AB381E08B
:1001C00001C0880F6A95EAF7809582238ABB08955B
:1001D000089508954130F9F0E8F4823009F446C0FA
:1001E00068F4811509F44CC028B381E001C0880F80
:1001F0006A95EAF78095822388BB0895833009F0D9
:100200004AC022B381E001C0880F6A95EAF7809561
:10021000822382BB08958230B9F058F48115E9F049
:1002200088B321E001C0220F6A95EAF7822B88BBD0
:100230000895833079F582B321E001C0220F6A95D9
:10024000EAF7822B82BB089585B321E001C0220F1B
:100250006A95EAF7822B85BB08958BB321E001C034
:10026000220F6A95EAF7822B8BBB089525B381E0B4
:1002700001C0880F6A95EAF78095822385BB0895AF
:100280002BB381E001C0880F6A95EAF7809582233D
:100290008BBB08950895089541155105A1F0843050
:1002A00090F4683080F4823099F0833079F08130B6
:1002B00059F486B390E002C0959587956A95E2F768
:1002C0008170FA018083089589B3F4CF80B3F2CFAF
:1002D00083B3F0CF8230B9F058F48115E9F088B3D8
:1002E00021E001C0220F6A95EAF7822788BB0895B2
:1002F0008330D9F482B321E001C0220F6A95EAF776
:10030000822782BB089585B321E001C0220F6A9540
:10031000EAF7822785BB08958BB321E001C0220F45
:100320006A95EAF782278BBB08950895823049F0D9
:1003300020F4811541F067BB0895833031F461BB2F
:10034000089564BB08956ABB08950895823049F00A
:1003500020F4811541F068BB0895833031F462BB0D
:10036000089565BB08956BBB0895089561157105E7
:1003700071F0823091F030F4811559F086B3FB01B1
:1003800080830895833021F480B3FB018083089536
:10039000089589B3FB018083089583B3FB018083B3
:1003A0000895EF92FF920F931F93CF93DF93CDB7F2
:1003B000DEB72B970FB6F894DEBF0FBECDBFBE2DB4
:1003C000E982AF2DFA82902F0B83F12F1C83E22F4D
:1003D0002D833E834F8358876987172F7A87082F8D
:1003E0008B874E815F8168857985E0929200F092DB
:1003F000930090939400F09395002093960040937F
:100400009700509398006093990070939A0010930E
:100410009B0080939C0080ECB13009F080E8A13013
:1004200009F47FC0E11531F0E23009F470C0E33027
:1004300009F46FC09930B0F4990F892B80BDF13069
:10044000B9F030F180E090E099B980BD57985698A6
:10045000559811501730E0F5E12FF0E0E35EFB4FC7
:100460000C94150459F78660529A80BDF13049F713
:10047000599A440F551F661F771F440F551F661F5B
:10048000771F9A01AB01220F331F441F551F13C062
:1004900059989A01AB01220F331F441F551F220F99
:1004A000331F441F551F220F331F441F551F220F98
:1004B000331F441F551F60E072E18AE790E00E94FD
:1004C000F30321503109922F832FBECF569A559AAC
:1004D000013098F4549A53982B960FB6F894DEBFD7
:1004E0000FBECDBFDF91CF911F910F91FF90EF9085
:1004F0000895579A569A013068F381F0023061F7F7
:10050000549A539AE9CF569A559A579AE1CF8062F6
:1005100091CF80638FCF579A559ADACF539A5498D8
:10052000DBCF88607FCF9C015D9BFECF80919400E4
:10053000893011F02CB90895509830FFFBCF509AB4
:100540002CB908955F9BFECF80919400893029F0EB
:1005500080E090E02CB1822B0895882751998395F3
:10056000880F990BF7CFDC019C91911581F020E069
:10057000809194005D9BFECF893009F450989CB91E
:100580002F5FFD01E20FF11D90819111F3CF0895CE
:10059000DC010097F9F05F9BFECF3091940080E082
:1005A0003930C9F02CB1822B8C93681791F0FD0182
:1005B00031965F9BFECF80E0393029F4882751992E
:1005C0008395880F990B2CB1DF01822B81936813DF
:1005D000F0CF1C920895882751998395880F991F11
:1005E0002CB1822B8C936813E2CFF3CF6115710588
:1005F00079F0FC01680F791F9091940081915D9BC7
:10060000FECF993009F450988CB9E617F707B1F787
:1006100008959C0180919400893011F02CB90895BF
:10062000509830FFFBCF509A2CB90895549A0895F2
:10063000539A08955498089553980895579A089591
:10064000569A0895559A089557980895569808957A
:1006500055980895009721F08093A1009093A200EF
:100660000895009721F080939F009093A000089533
:10067000009721F080939D0090939E0008951F9213
:100680000F920FB60F9211242F933F934F935F93C6
:100690006F937F938F939F93AF93BF93EF93FF934A
:1006A000E091A100F091A200309741F08091940078
:1006B00090E08930A1F02CB1822F0995FF91EF9144
:1006C000BF91AF919F918F917F916F915F914F916A
:1006D0003F912F910F900FBE0F901F901895882774
:1006E00051998395982FE7CF1F920F920FB60F92D3
:1006F00011242F933F934F935F936F937F938F9327
:100700009F93AF93BF93EF93FF93E0919D00F09180
:100710009E00309709F00995FF91EF91BF91AF913D
:100720009F918F917F916F915F914F913F912F9109
:100730000F900FBE0F901F9018951F920F920FB63B
:100740000F9211242F933F934F935F936F937F9357
:100750008F939F93AF93BF93EF93FF93E0919F008D
:10076000F091A000309709F00995FF91EF91BF91AA
:10077000AF919F918F917F916F915F914F913F9139
:100780002F910F900FBE0F901F90189541E060E0E1
:1007900080E00E94880040E060E080E00E94EA0083
:1007A0000E9449008BE690E00E9480000E947D003C
:1007B000813379F08033D1F740E060E080E00E943F
:1007C000EA0087E890E00E9480000E947D0081336B
:1007D00089F741E060E080E00E94EA008EE790E067
:1007E0000E948000E3CFA1E21A2EAA1BBB1BFD01D1
:1007F0000DC0AA1FBB1FEE1FFF1FA217B307E40700
:10080000F50720F0A21BB30BE40BF50B661F771F57
:10081000881F991F1A9469F7609570958095909537
:100820009B01AC01BD01CF010895EE0FFF1F0590A4
:10083000F491E02D0994F894FFCF85027A026702C3
:0808400079028B0266028302BB
:100848000000030000802500000002426C756574FA
:100858006F6F7468205265616479210D0A004C45F8
:1008680044204F4E0D0A004C4544204F46460D0A81
:0208780000007E
:00000001FF
